S0130000534B5F533747325F4932432E73726563F4
S1130000D828FE1F594B000091460000554B0000B4
S1130010554B0000554B0000554B000000000000FC
S1130020000000000000000000000000554B00002C
S1130030554B000000000000554B0000554B0000DC
S113004035280000ED270000C52800007D280000A9
S11300505928000011280000E9280000A128000008
S1130060000000000000000000000000000000008C
S1130070000000000000000000000000000000007C
S1130080000000000000000000000000000000006C
S1130090000000000000000000000000000000005C
S1130400FFFFFFFFFFFDFFFFFFFFFFFFFFFFFFFFFA
S1130410FFFFFFFFFFFFFFFFFFFFFFFFFFFFFFFFE8
S1130420FFFFFFFFFFFFFFFFFFFFFFFFFFFFFFFFD8
S1130430FFFFFFFFFFFFFFFFFFFFFFFFFFFFFFFFC8
S1130440FFFFFFFFFFFFFFFFFFFFFFFFFFFFFFFFB8
S1130450FFFFFFFFFFFFFFFFFFFFFFFFFFFFFFFFA8
S1130460FFFFFFFFFFFFFFFFFFFFFFFFFFFFFFFF98
S1130470FFFFFFFFFFFFFFFFFFFFFFFFFFFFFFFF88
S1130480FFFFFFFFFFFFFFFFFFFFFFFFFFFFFFFF78
S1130490FFFFFFFFFFFFFFFFFFFFFFFFFFFFFFFF68
S11304A0FFFFFFFFFFFFFFFFFFFFFFFFFFFFFFFF58
S11304B0FFFFFFFFFFFFFFFFFFFFFFFFFFFFFFFF48
S11304C0FFFFFFFFFFFFFFFFFFFFFFFFFFFFFFFF38
S11304D0FFFFFFFFFFFFFFFFFFFFFFFFFFFFFFFF28
S11304E0FFFFFFFFFFFFFFFFFFFFFFFFFFFFFFFF18
S11304F0FFFFFFFFFFFFFFFFFFFFFFFFFFFFFFFF08
S113050010B5054C237833B9044B13B10448AFF349
S113051000800123237010BD8800FE1F000000002E
S113052000820000084B10B51BB108480849AFF31E
S113053000800848036803B910BD074B002BFBD0AB
S1130540BDE81040184700BF000000000082000012
S11305508C00FE1F6C00FE1F0000000000F01F0155
S113056001234009024A8B4042F82030704700BF03
S113057000E100E04309203300F01F00012202499A
S1130580824041F82320704700E100E020B319B312
S113059030B54368002283B005460C464A600A60C1
S11305A0E3B19A68AAB192699AB11868694690470A
S11305B080B9009B6360A868A0B183684BB19B6954
S11305C03BB100686946984720B9009B236003B09B
S11305D030BD012003B030BD012070474FF0FF3320
S11305E04B60E8E74FF0FF332360F3E70123037028
S11305F043708370C3700020704700BF08B338B5E0
S113060004460068104A0301D35C012B05D0002581
S1130610A56102F057F8284638BD63682BB19A6883
S11306206AB1186858B1D3699847A3682BB19A681E
S11306302AB1186818B1D36998472068E7E7012000
S113064038BD0120704700BFE803FE1F58B151B107
S113065070B40568124E2C01345D013C042C04D99D
S1130660052070BC70470120704705F1007505F541
S113067060556D01AC79E40608D562B143689A68A7
S11306805AB11868B0FA80F04009EAE71943CB0779
S1130690F3D50320E5E71046E3E70120E1E700BFD7
S11306A0E803FE1F2DE9F04113461446426805464F
S11306B00E46FFF7CBFF88B994B12B68174F03F1AF
S11306C0007101F5605149011B018A79FB5C12F04C
S11306D0100F14BF01220222012B04D0BDE8F081C7
S11306E02046BDE8F08168680028F7D0B4FBF2F436
S11306F0836800684FF6FF77BC4228BF3C465F68BA
S1130700022A4FF0010E3246A3B285F814E0BC462B
S11307100CBF10311131BDE8F0416047E803FE1F02
S11307200AB90320704700297CD12DE9F04F514BC1
S1130730514F5E6985B042F21078144601900D461F
S11307408B46C1464FF0FF0A002003A9B0470BEBCC
S11307504B03002840F0898037F81330039ADFF800
S113076018C104FB03F3B2FBF3FE0EF1FF31BEF13B
S1130770000F12D003FB0EF3520AFF2909FB02F209
S11307804FEA532309D8B2FBF3F2A2F51C53103BF2
S1130790434502DA98468A465D460BF1010BBBF1EC
S11307A00D0FD1D142F2107398455ED0019B03F135
S11307B0007303F560535B0105EB45059A780CEB78
S11307C0450C5FFA8AFA22F003029A7083F801A0BA
S11307D0DA799CF8021022F0400201F0010142EAA9
S11307E08112DA71DA799CF8031022F0100201F018
S11307F0010142EA0112DA71DA799CF8041022F05C
S1130800080201F0010142EAC102DA719CF80520F4
S11308101C7802F0030124F003020A431A7005B0A5
S1130820BDE8F08F00F1007000F560504001FF2337
S11308304370C37923F04003C371C37923F00803E1
S1130840C371037823F003030370837823F0030355
S113085043F002038370C37902290CBF43F01003F1
S113086023F01003C37100207047032005B0BDE8D6
S1130870F08F00BFCC79000058780000F0B5134623
S113088083B01546826804460E46FFF7DFFE10B9B2
S1130890E06810B1082003B0F0BD236831491A01A3
S11308A08F188A5C012AF6D1797801B97A7003F13C
S11308B0007303F560535A01A168937913F0100F84
S11308C014BF01230223002946D0012D44D9022B51
S11308D0A5EB03004FF6FF77B5FBF3F5236105F1B4
S11308E0FF330CBF0E320F328D68BB42304428BF39
S11308F03B46E0606D6808689BB23146A847002813
S1130900C9D1226802F1007202F560525201937853
S113091043F02003937024680CB3032C0CBF052010
S11309200820FFF71BFE04F1007303F560535B011D
S113093000209A78D2B28DF807209A78D2B28DF836
S113094007209A78D2B28DF807209A7862F07F0255
S11309509A709DF807309EE7E6602561D7E701208D
S1130960DFE700BFE803FE1F002800F0C58070B574
S1130970046882B005460E46002C00F0A880032CC3
S113098000F09A800820FFF7F5FD002C00F0A2800B
S1130990032C00F094800820FFF7ECFD002C00F0FD
S11309A09C80032C00F08E800820FFF7E3FD002CD0
S11309B000F09680032C18BF082000F08680FFF713
S11309C0D9FD04F1007303F560535B019A78D2B248
S11309D08DF806209A78D2B28DF806209A78D2B291
S11309E08DF806209A7802F07F029A709A7822F0A5
S11309F004029A709A7822F040029A702B689DF84B
S1130A00062003F1007303F560535B019A7802F04A
S1130A10DF029A702B6803F1007303F560535B01E6
S1130A209A7802F0EF029A70286800F1007303F5D7
S1130A3060535B01997811F0030105D0DB7913F061
S1130A40100F14BF022103213246FFF769FE2B6801
S1130A5003F1007303F560535B0106469A7842F094
S1130A6010029A702C68002C41D0032C3AD0082034
S1130A70FFF774FD002C3DD0032C18BF082034D0A0
S1130A80FFF76CFD04F1007303F560535B0130461E
S1130A909A78D2B28DF807209A78D2B28DF80720CE
S1130AA09A78D2B28DF807209A7842F040029A7070
S1130AB09DF8073002B070BD0520FFF75BFD0620EE
S1130AC0FFF758FD0420FFF755FD072077E70120C5
S1130AD0FFF750FD0220FFF74DFD0020FFF74AFD10
S1130AE003206CE70420FFF739FD0720C8E7204600
S1130AF0FFF734FD0320C3E7012070472DE9F04FD1
S1130B0087B0A8B1A1B1064608680C4601F068FE9A
S1130B1048B92068194F0301FB5C73B108252846C6
S1130B2007B0BDE8F08F0546284607B0BDE8F08F52
S1130B300125284607B0BDE8F08F237A022B04D99B
S1130B400325284607B0BDE8F08FA37A012BF7D818
S1130B50637A022BF4D8D4F81C80B8F1000F07D0C4
S1130B6098F80030002B40F074836368002BE7D0C2
S1130B7001F08CFD054618B10A25D0E7E803FE1FF5
S1130B80E3682269B2607360002B49D0D3F808E0AF
S1130B90BEF1000FCCD0D3F800C0BCF1000FC7D019
S1130BA058680028C4D00368002BC1D0D9789A783B
S1130BB094F808904FF0020A65F387116AF38302F0
S1130BC065F3830165F34512D145D9709A7000F03D
S1130BD08882DA7865F30512DA70D4F800B0BBF1D4
S1130BE0000F02D0BBF1030FA2D18246BAE80F0076
S1130BF00DF10409A9E80F00C54BDAF80020C9F883
S1130C00002033F81B20DEF80030ADF80820002265
S1130C1060468DF80A2001A99847002883D12269EB
S1130C20002A4DD0D2F808C0BCF1000F80D0D2F811
S1130C300090B9F1000F3FF47BAF5268002A3FF4F3
S1130C4077AF1368002B3FF473AFD878997894F892
S1130C5008E04FF0020A00F03F0001F0F3016AF3EC
S1130C6083006FF34511D645D870997000F0EB827C
S1130C70D9786FF30511D970D4F800B0BBF1000F27
S1130C8003D0BBF1030F7FF453AF9246BAE80F00D1
S1130C900DF1040EAEE80F009E4BDAF80020CEF8FA
S1130CA0002033F81B20DCF80030ADF808200022C7
S1130CB048468DF80A2001A9984700287FF433AFED
S1130CC00120D4F8009003F083FE934AC9F11F0970
S1130CD013684FF0010A0AFA09F123EA01031360C9
S1130CE0504603F051FE236803F1007303F560538B
S1130CF05B0106221A77D4F80090B9F1000F00F0D6
S1130D00F681B9F1030F40F0FD810520FFF732FCB5
S1130D100620FFF72FFC0420FFF72CFC0720FFF729
S1130D2029FC09F1007303F560535B019A78D2B290
S1130D308DF803209A78D2B28DF803209A78D2B233
S1130D408DF803209A7802F07F029A709A7822F044
S1130D5004029A709A7822F040029A7023689DF8EF
S1130D60032003F1007303F560535B019A7802F0EA
S1130D70EF029A70236803F1007303F560535B017B
S1130D809A7802F0DF029A70236803F1007303F586
S1130D9060535B019A8A22F001029A82236803F16C
S1130DA0007303F560535B019A8A42F002029A824F
S1130DB02369002B00F03C82236803F1007303F5E0
S1130DC060535B019A8A22F470629A82236803F169
S1130DD0007303F560535B019A8A6FEA02526FEA6B
S1130DE012529A82226802F1007202F56052520194
S1130DF0938A43F004039382938A5907FCD42369AA
S1130E00002B00F0C081236803F1007303F56053E5
S1130E105B019A8A22F0F0029A82B8F1000F00F086
S1130E20288198F80230002B00F05081236803F1E8
S1130E30007303F560535B01DA7962F07F02DA71C3
S1130E4098F80330002B00F01E81236803F100732F
S1130E5003F560535B010021DA7942F02002DA7174
S1130E6019722368D4F81C8003F1007303F56053EE
S1130E705B015A7A22F001025A72236803F100736B
S1130E8003F560535B015A7B02F07F025A732368B7
S1130E9003F1007303F560535B015A7B22F04002B7
S1130EA05A73637A002B00F0FB80236803F100730C
S1130EB003F560535B011A7842F020021A70637ADA
S1130EC0012B236803F1007303F560534FEA4313C6
S1130ED01A780CBF42F0100222F010021A70237A22
S1130EE0012B00F03081022B236803F1007303F51A
S1130EF060534FEA43131A7822F040021A709A7929
S1130F000CBF22F0100242F010029A7106E000BFFA
S1130F1044780000A878000000700440A37A012BF4
S1130F20236803F1007303F560534FEA43131A78FF
S1130F300CBF42F0080222F008021A70E37A002B78
S1130F4000F0B980236803F1007303F560535B017B
S1130F505A7B42F002025A73B8F1000F00F01E816E
S1130F6098F8001029B1022903D003290CBF0321EA
S1130F70002194E80500FFF7D3FB032800F0168155
S1130F8098F80130002B40F0ED80236803F10073E2
S1130F9003F560535B019A78997802F0020221F01C
S1130FA003010A439A70226802F1007202F560524A
S1130FB05201938A9B07FCD4938AC3F38003002BCA
S1130FC0FAD1918A41F001019182226802F1007202
S1130FD002F5605252014FF0010E918A21F008018E
S1130FE091822268A069616932604FEA021802F1B5
S1130FF0007207EB080C02F56052F061B161F36016
S113100033613375520107F808E08CF80130CCF8ED
S11310100460937843F0100393702468002C00F06C
S11310200281032C00F0FA800820FFF797FA002CC5
S113103000F0FC80032C18BF082000F0F280FFF7BA
S11310408DFA04F1007303F560535B019A78D2B210
S11310508DF804209A78D2B28DF804209A78D2B20E
S11310608DF804209A7842F040029A709DF804307A
S113107055E5236803F1007303F560535B01DA79E6
S113108002F07F02DA71236803F1007303F5605301
S11310905B010021DA7922F02002DA711972E0E6AC
S11310A0236803F1007303F560535B011A7822F09F
S11310B020021A7003E7236803F1007303F56053F9
S11310C05B015A7B22F002025A7345E7236803F15D
S11310D0007303F560535B01DA7902F07F02DA7181
S11310E0AEE6CAB2012161F30512DA7075E5504625
S11310F0FFF740FA0220FFF73DFA0020FFF73AFA23
S113110003200CE60820FFF735FAB9F1000FF1D0FF
S1131110B9F1030F3FF4FCAD0820FFF72BFAB9F146
S1131120000FEAD0B9F1030F3FF4F5AD0820FFF743
S113113021FAB9F1000FE3D0B9F1030F18BF082069
S11311407FF4EDADEAE5236803F1007303F5605322
S11311505B011A7842F040021A709A7942F0100248
S11311609A71DBE6236803F1007303F560535B01B6
S11311709A78997802F0030242F0010221F0030107
S11311800A439A700FE7236803F1007303F5605371
S11311905B019A8A42F0F0029A823EE6414694E864
S11311A00500FFF7BDFA03287FF4EFAE236803F1CF
S11311B0007303F560535B019A78997802F0020298
S11311C021F003010A439A7073681BB19A68186886
S11311D0D3699847B3681BB19A681868D36998476C
S11311E0236803F1007303F560535B010120DA798E
S11311F002F07F02DA71256803F0EAFB174A012046
S11312001368C5F11F0500FA05F10B43136003F0E1
S1131210BBFB206801F04CFA032580E40420FFF7AF
S11312209DF907200BE72046FFF798F9032006E70E
S1131230236803F1007303F560535B019A8A42F457
S113124070629A82C2E5C1B2012060F30511D970BF
S113125012E5023B012B3FF673AC89E400700440B5
S1131260654B03EB0013F0B55C682268A76800F1D6
S1131270007502F1007202F5605305F560555B01DB
S11312806D0183B0EE8A997911F0100FC6F3042E24
S113129014BF01210221002F64D0BEF1000F0FD131
S11312A0E26816781A79D209FCD0B2B2DA812369DD
S11312B0E2685B1A11442361E16023B103B0F0BD1D
S11312C02369002BFAD1064600287DD0032832D0AA
S11312D00820FFF743F9AB78DBB28DF80630AB7822
S11312E0DBB28DF80630AB78DBB28DF80630AB7824
S11312F043F00403AB709DF80630002E79D0032E22
S113130018BF08202CD0FFF735F9AB78DBB28DF885
S11313100730AB78DBB28DF80730AB78DBB28DF8F1
S11313200730AB7803F07F03AB709DF807200023F0
S1131330E36003B0F0BD0620FFF710F9AB78DBB231
S11313408DF80630AB78DBB28DF80630AB78DBB2C3
S11313508DF80630AB7843F00403AB709DF806308B
S11313600520D0E726694EB3CEF11006002E25DD08
S1131370E368012902F560520CBF93F800E0B3F86A
S113138000E052011379DB09FCD05FFA8EF3D381BC
S11313902269E368521A0F440B44BA4206F1FF363D
S11313A02261E36004D91EB1226802F10072E0E711
S11313B0236803F1007303F560535B011A7902F0AB
S11313C07F021A71236978E70220FFF7C7F8AB7828
S11313D0DBB28DF80630AB78DBB28DF80630AB7833
S11313E0DBB28DF80630AB7843F00403AB709DF8A4
S11313F00630012087E700BFE803FE1F2E4B03EBF6
S113140000132DE9F04FD3F804B0DBF80030DBF81B
S1131410042000F1007403F1007303F5605304F534
S113142060545B01640185B0E58A9B7913F0100F69
S1131430064605F01F0514BF4FF001084FF00208DF
S113144012B19BF8143023BB4FF0000AD146802719
S113145012E0238ADBF818209BB2DBB252B1DBF82E
S11314601C10009602938DF8047003919047B8F114
S1131470020F07D00AF1010A55456846E9D105B0C3
S1131480BDE8F08FCDF80890DBF81830684698472F
S1131490F0E7DBF8183000228BF81420002BD3D0AF
S11314A0DBF81C10009001208DF8040002920391D7
S11314B068469847C8E700BFE803FE1FF0B51C4E16
S11314C00501731987B004465F6800282DD00328EE
S11314D00CBF06200820FFF74DF804F1007303F554
S11314E060535B019A78D2B28DF807209A78D2B211
S11314F08DF807209A78D2B28DF807209A7822F0D6
S113150004029A70BB699DF807204BB1FA690592F1
S113151000210222029404918DF80C2002A898471D
S1131520354400236B7007B0F0BD0220D3E700BF41
S1131530E803FE1F10B500F1007303F560535B016F
S113154016491C8A1A7901EB001122F040024968FD
S11315501A711A7922F001021A711A79920684B06A
S1131560E4B20CD520238DF804308B692BB1CA6901
S11315700090039202946846984704B010BD1A790B
S1131580D20607D51B7FDB0754BF102308238DF831
S11315900430EAE704238DF80430E6E7E803FE1F8D
S11315A000F01F0101234009024A8B4042F8203019
S11315B0704700BF00E100E04309203300F01F0042
S11315C001220249824041F82320704700E100E0F3
S11315D020B1034B1B680360002070470120704753
S11315E0F078000030B50023C37604464377027FC9
S11315F0A17D8068E06083B0E17523762361002AD1
S11316005FD123681B6803F1007303F560535B012A
S1131610DA7A42F03002DA72DA7A62F03F02DA728F
S1131620DA7A2168C2F301128DF80520DA7A0D689E
S113163092098DF80520DA7AC2F301128DF805209B
S1131640DB7A9B098DF805309DF80530002D65D0B7
S1131650032D0CBF06200820FFF7A2FF05F100733D
S113166003F560535B0151219A78D2B28DF80620BC
S11316709A78D2B28DF806209A78D2B28DF80620E4
S11316809A7842F004029A7023689DF806201A683A
S113169002F1007202F560525201D172D37A1B0733
S11316A0FCD50023D3722368DB68002B31D1637F20
S11316B0002BFCD0E37E002B0CBF0020122003B0D3
S11316C030BD22682377156835B3032D0CBF052080
S11316D00820FFF765FF05F1007303F560535B0114
S11316E09A78D2B28DF807209A78D2B28DF8072072
S11316F09A78D2B28DF807209A7862F07F029A70B5
S1131700A37D9DF80720012B0AD02368DB68002BFA
S1131710CDD0002003B030BD0120DAE702209BE7E2
S113172023681B6803F1007303F560535B011A79A6
S1131730D209FCD0217D1A79D209FCD0D970E27D7E
S1131740237E013A0133E2752376DEE730B129B115
S113175022B1F0B584691CB90720F0BD012070479F
S11317600568DFF870E06D010EEB050404F118065E
S11317707779CFB101274EF80500B3706160A2609C
S1131780E2607770837ABB421AD0337973B10389EC
S1131790A7751034DB0963F00E0323710EEB05000B
S11317A0BDE8F040FFF71EBF0820F0BD0389DB0948
S11317B063F00E036375038923750323A375EDE7B3
S11317C000226275027AA37502FA07F33B4323757C
S11317D0E4E700BFF400FE1F70B369B3F0B5846999
S11317E00CB90720F0BD0568DFF874E06D010EEB5D
S11317F0050404F118067779E7B14EF805000027CF
S1131800B3706160A260E2607770837A012B21D0AB
S113181033799BB10389DB09103403F00E0363F0C1
S11318200F0301222371A2710EEB0500BDE8F04005
S1131830FFF7D8BE0820F0BD012070470389DB09FB
S113184003F00E0363F00F0363750389237502230A
S1131850A375E9E76775027AA37553002375E3E777
S1131860F400FE1FF0B50768514C7E0185B0A35902
S1131870834203D011B9084605B0F0BDA319D96855
S11318800029F8D00546002F72D0032F7BD0082002
S1131890FFF792FE002F6ED0032F77D00820FFF7BA
S11318A08BFE002F6AD0032F73D00820FFF784FE2D
S11318B0002F66D0032F18BF08206DD007F10077E2
S11318C007F560577F01FFF777FEBB78DBB28DF831
S11318D00330BB78DBB28DF80330BB78DBB28DF814
S11318E00330BB7803F07F03BB70BB7823F00403A1
S11318F0BB70BB7823F04003BB702B689DF80320BA
S113190003F1007303F560535B01DA7AC2F3011249
S1131910022A43D05422DA72DA7A1207FCD5F02272
S1131920DA722A6802F1007202F560525201D37A27
S11319305B07FCD4F023D372A159CA68A01952B131
S11319408368C068096901911B1A012102938DF80B
S11319500C1001A8904734440020A27DA56822768B
S1131960E0600122122062772561E27605B0F0BDC5
S11319700120FFF721FE0220FFF71EFE0020FFF7E3
S11319801BFE03209AE70520FFF716FE0620FFF74B
S113199013FE0420FFF710FE07208FE7F022DA720F
S11319A02B6803F1007303F560535B01B2E700BFDA
S11319B0F400FE1F30B183690BB907207047012181
S11319C0FFF750BF01207047002870D082690AB920
S11319D00720704770B50546002182B0FFF742FF2B
S11319E02C683F4A52F824300021013B064642F855
S11319F02430A96133B13B4B2401002230461A55EF
S1131A0002B070BD002C5FD0032C52D00820FFF729
S1131A10D3FD002C5BD0032C4ED00820FFF7CCFD67
S1131A20002C57D0032C4AD00820FFF7C5FD002C0A
S1131A3053D0032C18BF082044D004F1007404F5DB
S1131A4060546401FFF7B8FDA378DBB28DF807306A
S1131A50A378DBB28DF80730A378DBB28DF80730BA
S1131A60A37803F07F03A370A37823F00403A37087
S1131A70A37823F04003A3702B689DF8071003F1AB
S1131A80007303F560535B01F022DA7201202C68C5
S1131A9002F09EFF144AC4F11F041368012000FAE7
S1131AA004F10B43136002F06FFF2C68A3E70120DD
S1131AB070470520FFF780FD0620FFF77DFD042019
S1131AC0FFF77AFD0720B8E70120FFF775FD022034
S1131AD0FFF772FD0020FFF76FFD0320ADE700BFA5
S1131AE0A400FE1FE803FE1F0070044020B119B1DA
S1131AF0B14B4A689A4201D9012070472DE9F04759
S1131B00054682B008680C4600F06AFE28B92368CE
S1131B10AA4E1B01F35C1BB1082002B0BDE8F0879C
S1131B20AB69002BF8D123686268A068E1682B6078
S1131B302F68DFF89C92A8606A60E9602369626993
S1131B4059F82700B0FA80F84FEA58186A612B61F7
S1131B50B8F1000F0BD19A497B01CA18D268002A48
S1131B6000F0048108203F010423F355D5E7012048
S1131B7002F02EFF934A4FF0010A1368C7F11F07C2
S1131B800AFA07F123EA01031360504602F0FCFE4F
S1131B902C68002C00F00581032C00F0F78008204D
S1131BA0FFF70AFD002C00F0FF80032C00F0F18009
S1131BB00820FFF701FD002C00F0F980032C00F051
S1131BC0EB800820FFF7F8FC002C00F0F380032CD6
S1131BD018BF082000F0E380FFF7EEFC04F1007367
S1131BE003F560535B0100229978C9B28DF80310A4
S1131BF09978C9B28DF803109978C9B28DF8031099
S1131C00997801F07F019970997821F00401997015
S1131C10997821F0400199702B689DF8031003F125
S1131C20007303F560535B011A712B6803F10073B1
S1131C3003F560535B019A702B6803F1007303F59D
S1131C4060535B019A712B6803F1007303F56053D1
S1131C505B011A702B6803F1007303F560535B0199
S1131C609A8A22F001029A822A6802F1007202F52D
S1131C7060525201D37A43F03003D372D37A63F0C3
S1131C803F03D372D37AC3F301138DF80230D37AAE
S1131C909B098DF80230D17A2B68C1F301118DF8BC
S1131CA00210D27A03F1007303F560535B019209C9
S1131CB08DF802209DF802201A7802F07F021A7033
S1131CC02B6803F1007303F560535B019A7822F0EB
S1131CD003029A702B6803F1007303F560535B01F0
S1131CE09A7942F008029A712B6803F1007303F5A4
S1131CF060535B019A7922F004029A712B6803F114
S1131D00007303F560535B019A7922F001029A7122
S1131D102B6803F1007303F560535B01DA7922F059
S1131D200402DA716C68284B00205B6901A99847AA
S1131D30002851D1DDF804E0DFF898C001460346DD
S1131D403CF8017004FB07F2BEFBF2F2501EFE28C1
S1131D5001F1060140F2BF800133042BF0D1B8F148
S1131D60000F40F0A8802F681120FCE6174A6C6829
S1131D7052F827209442D6D30B4401214218A9617A
S1131D80597749F8272000202F68ECE60520FFF753
S1131D9013FC0620FFF710FC0420FFF70DFC0720BE
S1131DA01AE75046FFF708FC0220FFF705FC002065
S1131DB0FFF702FC03200FE7801A0600E803FE1F6A
S1131DC0F400FE1F00700440CC790000CC00FE1F1C
S1131DD0A400FE1FD878000000231846002CBED0B3
S1131DE02F68DFF814E107F1007202F56052520126
S1131DF003F00303507011784EF8274021F00301DB
S1131E000B431370B8F1000F6CD02A68384902F103
S1131E10007202F5605252010120D37943F020038D
S1131E20D37110722B6803F1007303F560535B01E7
S1131E3000205A7A42F001025A722B6803F10073AF
S1131E4003F560535B015A7A02F007025A722B6859
S1131E5003F1007303F560535B019A7A42F00202C6
S1131E609A722B6803F1007303F560535B019A7A4D
S1131E7042F020029A722A6802F1007202F560525E
S1131E805201937A43F0010393722B6803F10073B8
S1131E9003F560535B0158732A6802F1007202F57E
S1131EA060525201937843F0300393702F6859F8CD
S1131EB027007B0160E701202C6802F089FD0D4AB0
S1131EC0C4F11F041368012000FA04F10B431360EA
S1131ED002F05AFD47E702FB07F2C0B2BEFBF2F480
S1131EE0DBB27BE72F68024959F827007B0143E7FF
S1131EF0F400FE1F00700440CC00FE1F10B40E4915
S1131F0042018C18E3689BB100F10070A46800F5ED
S1131F1060504001E41A03795B06FCD58B184179C3
S1131F205A6811551969DA680131013A1961DA60A0
S1131F305DF8044B704700BFF400FE1FF0B5064681
S1131F4085B0002864D003280CBF0620082006F1C1
S1131F50007404F560546401FFF72EFBA378A64FC8
S1131F60DBB28DF80730A378DBB28DF80730A378A5
S1131F70DBB28DF80730A37875017A1923F00403D6
S1131F80A370917D137E9DF80700994202F1180019
S1131F9040D0012910D04278B2B1002B2DD0012BB2
S1131FA057D123795E07FCD57B191A7D2379DB0988
S1131FB0FCD07B19E2701B7E3D440133EA7D2B7615
S1131FC0531EEB7505B0F0BD5BB923795907FCD5F9
S1131FD07B195A7D2379DB09FCD07B19E2701B7EC7
S1131FE0EAE723795A07FCD57B191A7D2379DB09A3
S1131FF0FCD07B19E2701B7EDEE723795B07FCD5FE
S11320007B195A7D02F0FE022379DB09FCD0D0E76C
S113201002209CE7437803F0FF0E1BBB1169936811
S11320208B4200F04D81237BDB0700F1E7802379AD
S11320305E07FCD57B195B685A5C2379DB09FCD00D
S11320403D44E2702A69EB680132013B2A61EB608E
S1132050B8E723795807FCD57B195A7D2379DB0926
S1132060FCD0A6E71369002B3AD1237BDB0778D495
S11320709368D360012BA37A0CBF43F0200323F0B1
S11320802003A372002E00F0E180032E00F0D9801B
S11320900820FFF785FA002E00F0DB80032E18BF1E
S11320A0082000F0D180FFF77BFAA378DBB28DF82B
S11320B00B30A378DBB28DF80B30A378DBB28DF84C
S11320C00B30A37843F04003A3709DF80B302379C1
S11320D05E07FCD52379DB09FCD0FF23E37071E7AD
S11320E091688B4200F0C380227B12F001025ED122
S11320F0C27001398B42A37A0CBF43F0200323F052
S11321002003A372002E00F0A680032E00F0A88006
S11321100820FFF745FA002E00F0A080032E18BF18
S1132120082000F0A080FFF73BFAA378DBB28DF81B
S11321300D30A378DBB28DF80D30A378DBB28DF8C7
S11321400D30A37843F04003A3709DF80D3023793C
S11321505807FCD52379DB09BFD12379DB09F9D0F2
S1132160BBE7002E00F0ED80032E0CBF06200820F4
S1132170FFF716FAA378DBB28DF80C30A378DBB244
S11321808DF80C30A378DBB28DF80C30A2787B1973
S113219042F00402A270012154229DF80C00D97669
S11321A0E272E37A1D07FCD5F023E3720AE7002EFE
S11321B000F0C980032E0CBF06200820FFF7F0F9B9
S11321C0A378DBB28DF80E30A378DBB28DF80E3035
S11321D0A378DBB28DF80E30A2787B1942F00402AA
S11321E0A270012154229DF80E00D976E272E37A9E
S11321F01907FCD5D8E700BFF400FE1F002E34D029
S1132200032E0CBF06200820FFF7CAF9A378DBB21F
S11322108DF80830A378DBB28DF80830A378DBB2F0
S11322208DF80830A3783D4443F00403A3700122E1
S113223054239DF80810EA76E372E37A1807FCD574
S1132240B2E70420FFF7ACF907202CE73046FFF78C
S1132250A7F9032027E73046FFF7A2F9032062E736
S11322600420FFF79DF907205DE70220CCE7002E4C
S113227077D0032E0CBF06200820FFF791F9A3782E
S1132280DBB28DF80F30A378DBB28DF80F30A37872
S1132290DBB28DF80F30A2787B1942F00402A270F1
S11322A09DF80F209A7E1833002A4ED00121522225
S11322B01971E272E37A1A07FCD50023E37281E60E
S11322C080F803E0002E65D0032E4CD00820FFF7E1
S11322D073F9A378DBB28DF80930A378DBB28DF8FB
S11322E00930A378DBB28DF80930A37803F07F03BB
S11322F0A3709DF80930002E61D0032E18BF08206A
S113230046D0FFF74DF9A378DBB28DF80A30A378F5
S1132310DBB28DF80A30A378DBB28DF80A30A278EC
S11323207B1942F00402A2709DF80A209A7E1833A9
S11323308AB1012152221971E272E37A1907FCD59C
S1132340BBE7022014E7022038E75423E372E37A60
S11323501B07FCD528E75423E372E37A1A07FCD55C
S113236022E7022089E70520FFF726F9A378DBB2EC
S11323708DF80930A378DBB28DF80930A378DBB28D
S11323808DF80930A37803F07F03A3709DF809301A
S11323900620B6E70120FFF70FF9A378DBB28DF82A
S11323A00930A378DBB28DF80930A378DBB28DF85D
S11323B00930A37803F07F03A3709DF8093002204D
S11323C09FE700BFF0B5064685B0002800F09C806A
S11323D003280CBF0620082006F1007404F560549D
S11323E06401FFF7E9F8A378724FDBB28DF801308E
S11323F0A378DBB28DF80130A378DBB28DF801301D
S1132400A27875017B1922F00402A270997D1A7ECC
S11324109DF80100914203F1180032D0002E00F023
S11324208A80032E0CBF05200820FFF7B9F8A37893
S1132430DBB28DF80230A378DBB28DF80230A378DA
S1132440DBB28DF80230A2787B1962F07F02A270B1
S11324509B7D9DF80220012B01D005B0F0BD2379AE
S1132460DB09FCD07B191A7D2379DB09FCD03D44C0
S1132470E2702A7EEB7D0132013B2A76EB7505B0D2
S1132480F0BDC278002A41D14278002A55D0427862
S1132490002AE2D0DA68002ADFD17959CA6842B149
S11324A0086999680190022302918DF80C3001A803
S11324B090477B1901225A77002E71D0032E74D0D5
S11324C00820FFF779F8002E6DD0032E18BF0820DE
S11324D06ED0FFF771F8A378DBB28DF80430A378DF
S11324E0DBB28DF80430A378DBB28DF80430A37826
S11324F03D4423F04003A3709DF80430AB7E002BD1
S1132500ABD1F023E372A8E7022065E77859C168EC
S113251051B19A68DB6800690190D31A01220293D1
S11325208DF80C2001A888473D440122F0236A77E6
S1132530E37205B0F0BD012077E7DA68002A2DD1F7
S11325407959CA6842B108699968019003230291D4
S11325508DF80C3001A890477B19012058771EB1E3
S1132560032E0CBF05200820FFF726F8A378DBB262
S11325708DF80330A378DBB28DF80330A378DBB297
S11325808DF80330A3783D4403F07F03A3709DF8D6
S11325900330AB7E002B7FF460AFB2E743785CE797
S11325A03046FFF709F8032093E70420FFF704F807
S11325B007208EE7F400FE1F4001024B002118584B
S11325C0FFF750B9F400FE1F4309203300F01F0049
S11325D001220249824041F82320704700E100E0D3
S11325E0054A0301D35C012B04D0042B00D07047AF
S11325F0FFF7A4BCFEF734BEE803FE1F03010C4A38
S1132600D35C012B10B504460ED0042B09D004F181
S1132610007000F560504001037903F0C7030371B3
S113262010BDFFF7C9FFF2E7FEF784FFEFE700BF35
S1132630E803FE1F054A0301D35C012B04D0042BDD
S113264000D07047FFF7BEBEFEF738BFE803FE1F99
S113265002010D498A5C012A04D0042A00D0704783
S1132660FFF74CBC10B50446FEF7C8FE04F1007336
S113267003F560535B011A7922F040021A711A794A
S113268022F001021A7110BDE803FE1F092808B5E3
S113269007D00730C0B202F051F9082806D0002054
S11326A008BD102002F04AF90828F8D10A2008BD14
S11326B0092803D00730C0B202F054B9102002F048
S11326C051B900BF30B5044683B0002878D0032840
S11326D06BD00820FFF778FF002C74D0032C67D050
S11326E00820FFF771FF002C70D0032C63D0082062
S11326F0FFF76AFF002C6CD0032C18BF08205DD0B4
S1132700FFF762FF04F1007303F560535B010025DA
S11327109A78D2B28DF807209A78D2B28DF8072031
S11327209A78D2B28DF807209A7802F07F029A70D4
S11327309A7822F004029A709A7822F040029A70F1
S11327409DF807209A7802F0EF029A709A7802F0C6
S1132750DF029A7099789A7801F0020122F003025C
S11327600A439A70DA7902F07F02DA71DA7922F098
S11327702002DA7101201D7202F02AF9164A0120A2
S11327801368C4F11F0100FA01F10B43136002F056
S1132790FBF82046FFF78CFF104A24011319155546
S11327A05D705D609D6003B030BD0520FFF70CFFD8
S11327B00620FFF709FF0420FFF706FF07209FE725
S11327C00120FFF701FF0220FFF7FEFE0020FFF7C4
S11327D0FBFE032094E700BF00700440E803FE1FE3
S11327E009288CBF04200020704700BF00B50020DA
S11327F083B0FFF7F5FE012002F044F8034BD3F851
S113280004330193019B03B05DF804FB00600040B6
S113281000B5032083B0FFF7E3FE052002F032F891
S1132820034BD3F814330193019B03B05DF804FB0D
S11328300060004000B5002083B0FFF709FF0020CE
S113284002F020F8034BD3F800330193019B03B04B
S11328505DF804FB0060004000B5032083B0FFF77F
S1132860F7FE042002F00EF8034BD3F81033019363
S1132870019B03B05DF804FB0060004000B500203C
S113288083B0FFF7BBFE032001F0FCFF034BD3F83A
S11328900C330193019B03B05DF804FB006000401E
S11328A000B5032083B0FFF7A9FE072001F0EAFF7B
S11328B0034BD3F81C330193019B03B05DF804FB75
S11328C00060004000B5002083B0FFF7B3FE022093
S11328D001F0D8FF034BD3F808330193019B03B0F5
S11328E05DF804FB0060004000B5032083B0FFF7EF
S11328F0A1FE062001F0C6FF034BD3F81833019361
S1132900019B03B05DF804FB00600040012907D07F
S113291029B9074A1378184300F030001070704743
S1132920034A137803F0300323EA00001070704761
S1132930000D0440012900F47F4208D04FF4803197
S113294081400023D2080448194311507047814044
S11329508BB20021F6E700BF08000440000A4001E2
S1132960024B41EA0242C250704700BF08000440D3
S1132970000A400100F1804000F104100068000CDE
S1132980704700BF034B000A03EB401341EA0242C5
S11329905A60704708000440030AC0B200EB0313F6
S11329A09B0003F1804303F581231868C0F34000C2
S11329B0704700BF000A400100F1804000F104109C
S11329C0006880B2704700BF000A400100F18040F7
S11329D000F58020006880B2704700BF000A400103
S11329E000F1804000F5802003681B0C1B04194390
S11329F001607047014B00221A8070473402FE1FA9
S1132A00030AC0B200EB03139B0003F1804370B4CC
S1132A1003F58123EFF3108472B6174A108880B24D
S1132A2018B9164D4026E870EE701088013080B257
S1132A30108084F31088CC03186805D520F4803006
S1132A4021F4803418601C601960EFF3108172B6B1
S1132A50138809489BB21BB10388013B9BB20380D6
S1132A6013889BB21BB9054A8020D370D07081F3C0
S1132A70108870BC704700BF3402FE1F000D044074
S1132A80020AC3B203EB02139B0003F1804303F574
S1132A9081231B6829B1064943F004031940FFF759
S1132AA0AFBF034923F004031940FFF7A9BF00BFD8
S1132AB0D5FC011F012343700370C3708370002091
S1132AC0704700BFA8B138B5054601F0B1FF2B88A7
S1132AD0002463B16B6803EBC40253F8341090888C
S1132AE0FFF78EFF01342B88A4B2A342F2D8002052
S1132AF038BD0120704700BF10B540F60733984237
S1132B0086B0044602D9032006B010BD012204ABEE
S1132B1002A804910191ADF808200393ADF8144084
S1132B2001F086FF20460199FFF76AFF002006B0F6
S1132B3010BD00BF40F60733984202D9032318465C
S1132B40704739B110B50C46FFF726FF00232070FB
S1132B50184610BD0123F2E7B0F5306F02D9032304
S1132B601846704739B110B50C46FFF723FF002310
S1132B702080184610BD0123F2E700BF0AB90320E4
S1132B807047B0F5306F08B501D9032008BD0B4676
S1132B90114022EA0302FFF7E1FE002008BD00BF56
S1132BA0012901D90320704740F60732904208B545
S1132BB001D9032008BDFFF7BDFE002008BD00BFFA
S1132BC00AB903207047B0F5306FFAD870B51446CF
S1132BD00E460546FFF7F8FE04EA0603184383B2DF
S1132BE066EA040128461940FFF7F8FE002070BD8C
S1132BF0012901D90320704740F60732904208B5F5
S1132C0001D9032008BDFFF73BFF002008BD00BF2A
S1132C10B0F5306F02D903231846704739B110B5A7
S1132C200C46FFF7A5FE00232080184610BD0123A3
S1132C30F2E700BF38B540F607339842044601D99D
S1132C40032038BD0D4681B100F47F40FFF790FEAC
S1132C50E4B2012202FA04F39BB2184083420BBF90
S1132C60002000202A70287038BD012038BD00BF24
S1132C70B0F5306F01D903207047002AFBD008B5A6
S1132C800B46114022EA0302FFF77CFE002008BD38
S1132C9040F60733984201D9032070470129FBD835
S1132CA010B5C3B200F47F4408D001229A4092B216
S1132CB000212046FFF766FE002010BD994089B22E
S1132CC00022F6E7202801D903207047012908B51E
S1132CD001D9032008BDFFF719FE002008BD00BF7D
S1132CE038B1037A094A52F82320824203D00720DC
S1132CF070470120704703F5800303F5F0631B025E
S1132D000020DA6A22F00102DA6270473802FE1FFC
S1132D1038B1037A094A52F82320824203D00720AB
S1132D2070470120704703F5800303F5F0631B022D
S1132D300020DA6A42F00102DA6270473802FE1FAC
S1132D4040B139B1037A094A52F82320824203D0B0
S1132D50072070470120704703F5800303F5F063F3
S1132D601B0200209B6C0B60704700BF3802FE1FE3
S1132D7020B1034B1B68036000207047012070479B
S1132D809079000060B159B170B5264A037A52F8BF
S1132D902350854282B018BF072003D002B070BD13
S1132DA00120704703F5800303F5F0631B02002242
S1132DB05B6E019201338B602B7A03F5800303F57C
S1132DC0F0631B020C46DB6AC3F30263013BDBB214
S1132DD0042B9CBF144A52F82360144B4FF0030099
S1132DE05B6901A988BF01269847019BB3FBF6F3F1
S1132DF063602B7A03F5800303F5F0631B021B6BFE
S1132E0003F0010323702B7A03F5800303F5F063C9
S1132E101B02D86A10F0010015BF002001232073A3
S1132E202373BBE73802FE1F44790000CC7900000D
S1132E3038B1184B027A53F82230834203D007206A
S1132E4070470120704710B472B61A7A02F58002F6
S1132E5002F5F06212020020D16AD46A24F001045F
S1132E60D4621A7A02F5800202F5F062120201F0CD
S1132E70010190641B7A03F5800303F5F0631B02E0
S1132E80DA6A22F001020A43DA6262B65DF8044BA0
S1132E90704700BF3802FE1F2DE9F04383B002AC37
S1132EA0002544F8045D324D884681466D6921460B
S1132EB003201F461646A847B8F1060F28D8DFE8B6
S1132EC008F03C043E484C502B00019826A3D3E95B
S1132ED00023A9FB000102F0F7FF02460B46002580
S1132EE04FF0FF349D4208BF94424FF000011ED2C0
S1132EF090084FEA930E40EA8370754501F1010191
S1132F0008BF844202467346C9B210D20529EFD1E4
S1132F10032003B0BDE8F0834FF47A72002102FB72
S1132F2009F20B46019802F0CFFF0246002100206F
S1132F303970326003B0BDE8F0834A46F6E7019881
S1132F400C4A0023A9FB000102F0BEFF02460B4617
S1132F50C5E701984FF47A72F3E7019AA9FB0223BB
S1132F60BDE700214A46DCE700CA9A3B00000000A6
S1132F70CC79000040420F0058B130B51E4B047AA2
S1132F8053F82430834283B018BF072003D003B022
S1132F9030BD0120704709B90320F8E70846002531
S1132FA011460DF1030301AA01958DF80350FFF7B3
S1132FB073FF02460028EAD104F5800303F5F063A9
S1132FC01B02D96ADC6A24F00104DC62DC6A9DF825
S1132FD0035024F0E06405F0070544EA0564DC626C
S1132FE0019C013C5C669A64DC6A01F0010224F0F5
S1132FF001010A43DA62CAE73802FE1F19B972B145
S1133000012A2BD070474B1C1BD000F5800000F523
S1133010F06000027AB1012A36D08165704700F56C
S1133020800000F5F0600002036B23F4403343F4A6
S1133030003303637047036B23F440330363416538
S11330407047BAB1012ADDD100F5800000F5F060C7
S11330500002036B43F040730363704700F5800084
S113306000F5F0600002036B23F0407343F000733B
S11330700363704700F5800000F5F0600002036B05
S113308043F4403303637047036B23F040730363DB
S1133090C3E700BF012938B514461D460CD01FD321
S11330A002291BD1134B98421CD0A0FB0201002320
S11330B0104A02F009FF07E0642813D0A0FB0201C4
S11330C00023642202F000FF002908BFB0F1FF3F93
S11330D008D000238B4208BF844205D2032038BDA8
S11330E0904204D14FF0FF302860002038BD002109
S11330F0EAE700BFA086010020B3F0B5047A0D2CE6
S113310083B002D9012003B0F0BD04F5800404F5B6
S1133110F064240216461F46626E02AB054608465A
S1133120002143F8041D01323146FFF7B3FF044682
S11331300028E8D1287A01993A46FFF75FFF204634
S113314003B0F0BD0120704740B138B52C4D037A6F
S113315055F82340844203D0072038BD012070472E
S113316003F5800303F5F0631B0226499A6B22F0F2
S1133170C0029A63237A03F5800303F5F0631B020C
S1133180DA6A22F00102DA62237AC95C4AB2072AB7
S113319029DD03F5800303F5F0631B02DA8E22F4C4
S11331A08072DA86237A03F5800303F5F0631B0249
S11331B09A8E22F480729A86207A4630C0B201F048
S11331C0D1FB1148247A036855F824100C4D0122D0
S11331D0A24023EA0203036081B100200860486032
S11331E045F8240038BD5209203201F01F010123A3
S11331F006488B4040F82230237ACAE7084638BD97
S11332003802FE1F807900007002FE1F00E100E01A
S11332102DE9F04184B000238DF80730029319B1F1
S113322010B14B7C0D2B03D9012004B0BDE8F08113
S11332304633DFB2044638460D4601F07FFB18B131
S1133240082004B0BDE8F0816868297A02AA0DF16B
S11332500703FFF721FE0646002840F0D0806B6983
S1133260002B00F09781B2496A7C8A56072A00F342
S11332708C81AA69626023606E7C26722B78697CDB
S1133280AC4A012B42F8214004D1AB490A68B3404F
S113329013430B60012001F09BFB072E00F2B48066
S11332A0A64A936823F020039360012001F06CFB8D
S11332B0237A03F5800303F5F0631B024FF0FF311B
S11332C0DA6A22F00102DA62207A00F5800303F55B
S11332D0F0631B0200224FF42547012607281F60D4
S11332E01A615A615A61DA611A625A629A62DA623E
S11332F01E635A639A63DA631A649A64D96419651B
S11333005965996559669966C3F88820C3F88C1085
S113331011D85A64D9661967D9675967C3F88010F8
S11333209967C3F88410C3F89010C3F89410C3F8D5
S11333309810C3F8A0202B780026022B039669D09E
S113334094F808809DF80730029908F5800404F584
S1133350F064240203F00702E36A23F4E023E36247
S1133360236B43F002032363236B43F001032363C2
S1133370236B23F002032363E36A23F0E06343EA4D
S1133380026301390022E3626166A264EF6937B126
S11333903B78002B40F08880BB78002B45D1A36B91
S11333A023F0C00343F04003A3636B69002B00F0D8
S11333B0BA806B7C5E4A624ED25C53B203F1C007A2
S11333C05B099B0056F8270003F1604302F01F01DC
S11333D003F5614301228A4020F4803146F8271026
S11333E0C3F880211A60A87C00283FF41EAFE36A6A
S11333F0002043F00103E36204B0BDE8F0813846E5
S113340001F0B0FA304610E74C4A936823F04003C9
S113341093604AE7E868297C029A03ABFFF73AFE17
S113342000287FF402AF039E8AE7A28EF9782878F9
S113343001F0010322F0100242EA0312A286A38ED5
S113344001F0030123F0C00343EA8113A386A38E92
S1133450012843F00C03A38600F08280A38E002889
S11334607AD023F00C0343F00803A386A38E23F041
S1133470030343F00103A386236C23F4402343F4A2
S113348080232364404631460122FFF7B7FD236BB6
S1133490002E73D123F0407343F000732363A38E93
S11334A043F48073A3867AE7E18E787895F800E098
S11334B000F0010321F0100141EA0311E186E38EDB
S11334C000F0030023F0C00343EA8013E386E38E95
S11334D0BEF1010F43F00C03E38637D0E38EBEF157
S11334E0000F2FD023F00C0343F00803E386E38E90
S11334F023F0030343F00103E386236C23F44033F6
S113350043F48033236440463146FFF777FD236B51
S11335106EBB23F4403343F400332363E38E43F45C
S11335208073E38638E72B78012B7FF45CAF40E7A8
S1133530807900003802FE1F7002FE1F00700440F4
S11335400060004023F00303E386E7E7E264E38ED0
S113355043F00303E386E1E723F00303A3869EE736
S113356000232365A38E43F00303A38697E7711C0E
S113357015D023F4403323636665CFE7721C12D061
S113358023F040732363A66589E7384601F0EAF91E
S11335900B204AE62A78012A7FF46EAE63E643F4F0
S11335A040332363BAE743F04073236377E700BFF4
S11335B0024B23F820100020704700BF1010044075
S11335C0024A002342F82030184670471010044085
S11335D0034A137863F07F0313700020704700BF21
S11335E000100440034A137803F07F031370002093
S11335F0704700BF0010044020B1034B1B680360F8
S11336000020704701207047B079000058B10128AC
S113361007D1084B002040214122187119711A71F9
S1133620704701207047034B4021412298709970E4
S11336309A70704700100440E8B130B40F4A5368E0
S113364023F48043536045685DB1836803EB8505CB
S11336505C8813F8041B0A4A89000A44AB421480AC
S1133660F6D1007828B1074A137863F07F0313700A
S1133670002030BC70470120704700BF0070044038
S11336801010044000100440084B094A094810B4C3
S11336900021094C1A604FF400425C60D860596103
S11336A09A601A615DF8044B704700BF7000FE1FFA
S11336B0002D310100366E0100127A0019491A4AB0
S11336C00B8D03F0030332F8132052B310B40C8DA6
S11336D016480B8D14F0100F14BF0021032107EEC0
S11336E0902A50F821205DF8044B07EE102AF8EEDA
S11336F0676AB8EE477AC3F3052387EE267A07EEA6
S1133700903AF8EEE77AF7EE006A77EEA67AF6EEEC
S1133710006A67EEA67A67EE277AFCEEE77AC0EDD8
S1133720057A704700E00140B47900007000FE1F84
S11337300E4AB2F8FE339BB243F4254343F001032F
S1133740A2F8FE3392F81334000100F0300003F0C5
S1133750CF03034382F81334B2F8FE3345F6FE2157
S11337600B4043F42543A2F8FE33704700E00140C8
S11337700E4AB2F8FE339BB243F4254343F00103EF
S1133780A2F8FE3392F88134400000F0020003F006
S1133790FD03034382F88134B2F8FE3345F6FE217B
S11337A00B4043F42543A2F8FE33704700E0014088
S11337B0264AB2F8FE339BB243F4254343F0010397
S11337C0A2F8FE3305280BD8DFE800F020283003E8
S11337D038181E4A92F8323023F0010382F832304E
S11337E01A4AB2F8FE3323F4145323F001035B04A2
S11337F05B0C43F42543A2F8FE337047134A92F856
S11338002A3023F0010382F82A30E9E70F4A92F8BC
S1133810363023F0010382F83630E1E70B4A92F8A0
S1133820383023F0010382F83830D9E7074A92F898
S1133830903423F0010382F89034D1E7034A92F8DC
S1133840803423F0010382F88034C9E700E00140AA
S1133850264AB2F8FE339BB243F4254343F00103F6
S1133860A2F8FE3305280BD8DFE800F02028300347
S113387038181E4A92F8323043F0010382F832308D
S11338801A4AB2F8FE3323F4145323F001035B0401
S11338905B0C43F42543A2F8FE337047134A92F8B5
S11338A02A3043F0010382F82A30E9E70F4A92F8FC
S11338B0363043F0010382F83630E1E70B4A92F8E0
S11338C0383043F0010382F83830D9E7074A92F8D8
S11338D0903443F0010382F89034D1E7034A92F81C
S11338E0803443F0010382F88034C9E700E00140EA
S11338F0032810D0052808D008B100207047094BD0
S113390093F83C0000F001007047064B93F83C002C
S1133910C0F340107047034B93F83C00C0F3C00061
S1133920704700BF00E00140052834D8DFE800F00C
S11339300B131B232B03194B93F82A0000F00100EF
S113394080F001007047154B93F8360000F0010039
S113395080F001007047114B93F8380000F001002B
S113396080F0010070470D4B93F8900400F00100C3
S113397080F001007047094B93F8320000F0010019
S113398080F001007047054B93F8800400F00100BB
S113399080F0010070470020704700BF00E0014044
S11339A0024B1A6A93F82630704700BF00E00140CA
S11339B00E4AB2F8FE339BB243F4254343F00103AD
S11339C0A2F8FE3392F8133400F0010023F0400310
S11339D043EA801382F81334B2F8FE3345F6FE212D
S11339E00B4043F42543A2F8FE33704700E0014046
S11339F00E4AB2F8FE339BB243F4254343F001036D
S1133A00A2F8FE3392F8A23001F00F0123F00F0365
S1133A10194382F8A210B2F8FE3345F6FE210B409A
S1133A2043F42543A2F8FE33704700BF00E0014091
S1133A3005288CBF00200120704700BF06288CBFDA
S1133A4000200120704700BF024B93F8260000F0CD
S1133A500700704700E001400E4AB2F8FE339BB203
S1133A6043F4254343F00103A2F8FE3392F82630D1
S1133A7000F0070023F00703184382F82600B2F889
S1133A80FE3345F6FE210B4043F42543A2F8FE33F2
S1133A90704700BF00E00140034B1B8D13F0100F73
S1133AA00CBF03200020704700E001400F4A10497A
S1133AB0B2F8FE3311F810109BB243F4254343F0DF
S1133AC00103A2F8FE33138D01F0010123F010036A
S1133AD043EA01131385B2F8FE3345F6FE210B4089
S1133AE043F42543A2F8FE33704700BF00E00140D1
S1133AF0C4790000114AB2F8FE3330EE000A9BB2DA
S1133B0043F42543FCEEC07A43F00103A2F8FE33EC
S1133B1017EE903A118D013B21F47C5103F03F03E1
S1133B2041EA03231385B2F8FE3345F6FE210B4028
S1133B3043F42543A2F8FE33704700BF00E0014080
S1133B400E4A0F49B2F8FE3331F810109BB243F419
S1133B50254343F00103A2F8FE33138D01F0030162
S1133B6023F003030B431385B2F8FE3345F6FE211D
S1133B700B4043F42543A2F8FE33704700E00140B4
S1133B80BC790000F0B5164AB2F8FE339BB243F498
S1133B90254343F00103A2F8FE3390F800C090F8E7
S1133BA002E0077946794578C478817900236CF37B
S1133BB00E336EF3061367F3124366F31E7365F355
S1133BC00A2364F3020361F31A631362B2F8FE3347
S1133BD045F6FE210B4043F42543A2F8FE33F0BD25
S1133BE000E001400E4B1A6AC2F3023202701A6AF4
S1133BF0C2F3022242701A6AC2F3021282701A6A73
S1133C0002F00702C2701A6AC2F3024202711A6A0F
S1133C10C2F3027242711B6AC3F302638371704779
S1133C2000E001404378022B16D8D0ED017AB3EEC0
S1133C300E7AF4EEC77AF1EE10FA0DDCB2EE047AE5
S1133C40F4EEC77AF1EE10FA06D40078032805D012
S1133C50B0FA80F040097047002070470120704797
S1133C60062828D8DFE800F0090E13181D220400E6
S1133C70124B186AC0F302607047104B186AC0F305
S1133C80023070470D4B186AC0F3022070470B4B8B
S1133C90186AC0F302107047084B186A00F0070056
S1133CA07047064B186AC0F302407047034B186A0A
S1133CB0C0F3027070470020704700BF00E001406D
S1133CC008B5FFF7CDFF054B054A93F8263003F0FE
S1133CD0070352F8233023FA00F008BD00E0014046
S1133CE07000FE1F024B53F82000C840704700BF0D
S1133CF07000FE1F0F4BB3F8FE2392B242F425422C
S1133D0042F00102A3F8FE2393F8402062F07F0200
S1133D1083F8402093F8402042F0010283F84020C9
S1133D20B3F8FE2345F6FE210A4042F42542A3F8E7
S1133D30FE23704700E001400F4BB3F8FE2392B21C
S1133D4042F4254242F00102A3F8FE2393F84020F6
S1133D5022F0010283F8402093F8402002F07F0211
S1133D6083F84020B3F8FE2345F6FE210A4042F4CE
S1133D702542A3F8FE23704700E00140024B93F86C
S1133D804000C009704700BF00E00140024B93F8B7
S1133D90410000F00100704700E00140114A92F830
S1133DA0410010F0010001D100207047B2F8FE3349
S1133DB09BB243F4254343F00103A2F8FE3392F887
S1133DC0413023F0010382F84130B2F8FE3323F48A
S1133DD0145323F001035B045B0C43F42543A2F862
S1133DE0FE33704700E001400E4AB2F8FE339BB246
S1133DF043F4254343F00103A2F8FE3392F8303034
S1133E0000F0010023F00103184382F83000B2F8F7
S1133E10FE3345F6FE210B4043F42543A2F8FE335E
S1133E20704700BF00E001400C4AB2F8FE339BB279
S1133E3043F4254343F00103A2F8FE3392F85230D1
S1133E4043F0010382F85230B2F8FE3345F6FE2106
S1133E500B4043F42543A2F8FE33704700E00140D1
S1133E600C4AB2F8FE339BB243F4254343F00103FA
S1133E70A2F8FE3392F8523023F0010382F8523054
S1133E80B2F8FE3345F6FE210B4043F42543A2F875
S1133E90FE33704700E00140164BB3F8FE2392B2A4
S1133EA042F4254242F00102A3F8FE2393F83E2097
S1133EB002F07F0283F83E2093F83E2001F00701D0
S1133EC022F0700242EA011283F83E2093F83E2069
S1133ED000F0070022F00702104383F83E00B3F815
S1133EE0FE2345F6FE210A4042F42542A3F8FE23B0
S1133EF0704700BF00E001400C4AB2F8FE339BB2A9
S1133F0043F4254343F00103A2F8FE3392F83E3014
S1133F1063F07F0382F83E30B2F8FE3345F6FE21AB
S1133F200B4043F42543A2F8FE33704700E0014000
S1133F300C4AB2F8FE339BB243F4254343F0010329
S1133F40A2F8FE3392F83E3003F07F0382F83E304D
S1133F50B2F8FE3345F6FE210B4043F42543A2F8A4
S1133F60FE33704700E001400C4AB2F8FE339BB2C6
S1133F7043F4254343F00103A2F8FE3392F853308F
S1133F8043F0010382F85330B2F8FE3345F6FE21C4
S1133F900B4043F42543A2F8FE33704700E0014090
S1133FA00C4AB2F8FE339BB243F4254343F00103B9
S1133FB0A2F8FE3392F8533023F0010382F8533011
S1133FC0B2F8FE3345F6FE210B4043F42543A2F834
S1133FD0FE33704700E001400E4AB2F8FE339BB254
S1133FE043F4254343F00103A2F8FE3392F824304E
S1133FF000F0070023F0700343EA001382F8243032
S1134000B2F8FE3345F6FE210B4043F42543A2F8F3
S1134010FE33704700E001400B4B01380022B0F141
S1134020807F19681A600CD210B4084C5860F020D4
S113403084F82300072101209A6019605DF8044B7D
S1134040704719601046704710E000E000ED00E092
S11340500C4B1A7902F00E0242F0F0021A711A7A2D
S113406000F0010022F0040242EA80021A721A7A75
S113407022F0080242EAC00018721A7942F0F102F2
S11340801A71704700200040094B1A7942F0F1027E
S11340901A711A7A00F0010022F0100242EA0012AA
S11340A01A721A7902F00E0242F0F0021A71704785
S11340B000200040054A92F81C3100F0070023F06C
S11340C00703184382F81C01704700BF00C0014079
S11340D0024B93F81C0100F00700704700C0014038
S11340E0002070470020704700207047024B1B6877
S11340F003600020704700BF287A000038B50C46E2
S11341000546FFF7A1FC28702046FFF76BFD002051
S113411038BD00BF70B500240C600D460646FFF79D
S11341208DFC10B90324204670BD3046FFF7C8FD4E
S11341302860204670BD00BF10B5FFF727FE68B1A8
S1134140FFF782FC0446FFF7A7FC052C04D0032CE0
S113415004D140F2971010BD0328FAD0FFF71EFED9
S1134160002010BD08B5FFF73FFE002008BD00BFCA
S113417008B5FFF759FE002008BD00BF08B5FFF7DA
S11341806FFE002008BD00BF08B5FFF785FE0020C4
S113419008BD00BF08B5FFF7AFFE002008BD00BF93
S11341A008B5FFF7C5FE002008BD00BF08B5FFF73E
S11341B0DBFE002008BD00BF08B5FFF7F1FE0020BC
S11341C008BD00BF08B5FFF707FF002008BD00BF0A
S11341D000B583B04FF6FF730193FFF755FA04203F
S11341E0FFF736FB04E0019B3BB1019B013B0193CC
S11341F00420FFF799FB0028F5D1019B23B94FF464
S1134200CD7003B05DF804FB05210420FFF7C8FB63
S11342100020FFF7ADFA002003B05DF804FB00BFF7
S113422010B50446FFF704FC08B9032010BD631E53
S1134230012B0FD9042C0DD02CB1032C03D0052C49
S113424001D0002010BD2046FFF76EFB68B94FF483
S1134250C87010BD2046FFF767FB40F29113002899
S113426014BF18464FF4C87010BD2046FFF740FB3A
S113427040F2931300280CBF18464FF4C97010BDC8
S113428070B582B00E460546FFF7D2FB10B9032085
S113429002B070BD052D28460FD0FFF745FB18B1BD
S11342A040F2911002B070BD6A1E012A4ED9042D4D
S11342B025D0BDB1032D3AD0EAE7FFF735FBC8B9E5
S11342C0B6B1FFF7C1FB0528EAD03046FFF7AAFCD8
S11342D00028DCD03078FFF727FB00283BD14FF4CF
S11342E0CA70D5E7FFF704FB80B340F29310CFE721
S11342F00120CDE7FFF7E2F940F29110C8E7284624
S1134300FFF756FA4FF6FF73019304E0019B3BB1AC
S1134310019B013B01930420FFF706FB0028F5D025
S1134320019B002B0CBF4FF4CD700020B0E7284652
S1134330FFF7DEFA04460028D7D1FFF7F9F9204643
S1134340FFF736FB28460921FFF752FB2846FFF703
S11343502FFA00209CE72846FFF7CAFA04460028F3
S1134360C3D13078FFF7A2FB7078FFF7E9FB96ED35
S1134370010AFFF7BFFBFFF7A1F92846FFF718FA78
S1134380204685E710B582B00446FFF751FB10B90B
S1134390032002B010BDFFF757FB844216D0052856
S11343A010D0012C15D02046FFF7BEFA40B1022CE4
S11343B039D0042C1AD094B1032C10D0052C0ED073
S11343C00020E6E7FFF768FBA042EAD140F2911033
S11343D0DFE7FFF7D3FC08B340F29510D9E7204696
S11343E0FFF786FAF8B940F29310D2E72046FFF7B8
S11343F02FFA4FF6FF73019304E0019B3BB1019B3D
S1134400013B01930420FFF78FFA0028F5D1019BAB
S1134410002B0CBF4FF4CD700020BAE72046FFF705
S113442083FA0028CCD02046FFF712FAC8E700BF71
S113443070B50C460546FFF7FBFA08B9032070BDBA
S1134440002C3BD0A17963798B42F7D363788B42FC
S1134450F4D323788B42F1D323798B42EED32846CD
S1134460FFF740FC284B9842064631D80020FFF75E
S1134470EFFD0020FFF708FE244B9E4231D8FFF7E2
S113448027FE0026FFF7E0FA854207D0C5B1032DC9
S113449016D0052D14D02846FFF7DEFA2046FFF784
S11344A071FB00F0D1F81A4B1860FFF711FE864239
S11344B024D03046FFF7FEFD002070BD012070BD02
S11344C02846FFF715FA0028E5D14FF4C97070BDEE
S11344D00120FFF7BDFD0F4B9E4211D90120FFF7CC
S11344E0D3FD0D4B9E4294BF01260226FFF7F0FD3B
S11344F08642C7D93046FFF7DDFDC3E7002070BD13
S11345000020FFF7C1FDECE7FF0D2707FFB3C4044C
S11345108804FE1FFFC1EB0BFF67890900B583B058
S113452071B148B10146012000F0AAF8FFF7E2FB9F
S1134530002003B05DF804FB012003B05DF804FB28
S1134540FFF724FC20B14FF4CB7003B05DF804FBFB
S11345500190FFF7F1FB0198EBE700BF08B90320D6
S1134560704738B50D46044600F06EF807EE900A21
S1134570F8EE676AF7EE007AC7EEA66A07EE905A7D
S113458007EE104AF8EE677AB8EE477A66EEA77A35
S1134590C7EE277AFCEEE77A17EE900AFFF73CFDA8
S11345A000280CBF1220002038BD00BF70B5234D79
S11345B082B02B68984700216E680320B047012120
S11345C01F4AAC698DF80110032301928DF8003065
S11345D00320A047B0F5C97FFAD169460520B0474A
S11345E0184A92F8003143F0010382F800310520A3
S11345F0A047B0F5C97FFAD10022012402236946FD
S11346008DF806208DF801308DF802308DF80530D4
S11346108DF80040EB688DF803408DF804400520C8
S113462098472B6D042098476B6A20469847AB6ADD
S11346309847AB6C984702B070BD00BFCC790000BE
S11346400000A04100C0014000B583B002A90023CE
S113465041F8043D034B06205B699847019803B079
S11346605DF804FBCC790000044B002103F1300217
S113467043F8041B9342FBD1704700BF7402FE1F32
S1134680024B43F820100020704700BF7402FE1F45
S113469008B57A4BB3F84031D90700F1C180774BA4
S11346A0B3F840319A0700F1B080744BB3F840314D
S11346B05B0700F19F80714BB3F84031180700F19C
S11346C08E806E4BB3F84031D9067CD46B4BB3F873
S11346D04001C0F38010002869D1684BB3F8403121
S11346E01A0658D4654BB3F84031DB0547D4634B05
S11346F0B3F84031980536D4604BB3F840315905CE
S113470024D45E4BB3F840311A0512D45B4BB3F892
S11347104031DB0400D408BD594BDB6A002B40F068
S1134720AA80564AB2F8303143F48053A2F83031AB
S113473008BD534B9B6A002B40F09A804F4AB2F855
S1134740303143F40063A2F83031DFE74C4B5B6A4D
S1134750002B40F08A80494AB2F8303143F4806338
S1134760A2F83031CDE7464B1B6A002B7AD1434A7D
S1134770B2F8303143F40073A2F83031BCE7404B57
S1134780DB69002B6BD13D4AB2F8303143F48073BE
S1134790A2F83031ABE73A4B1B68002B5CD1374AA7
S11347A0B2F8303143F08003A2F830319AE7344B49
S11347B05B68002B4ED1314AB2F8303143F04003EC
S11347C0A2F8303189E72E4B9B69002B3FD12B4A4D
S11347D0B2F8303143F01003A2F8303176E7284BB9
S11347E05B698BBB254AB2F8303143F00803A2F869
S11347F0303166E7224B1B691BBB204AB2F83031CB
S113480043F00403A2F8303155E71D4B9B68ABB964
S11348101A4AB2F8303143F00203A2F8303144E7C7
S1134820174BDB683BB9154AB2F8303143F001034A
S1134830A2F8303133E703209847F4E70220984781
S1134840E6E704209847D8E705209847CAE70620FA
S11348509847BCE79847AEE7002098479FE70720B2
S1134860984790E70820984781E70920984772E71E
S11348700A20984762E70B20984752E700600040FF
S11348807402FE1F002808DB800000F1804000F560
S1134890C640036823F48033036070472DE9F04F6A
S11348A01D4B1E4F1E48DFF888A0DFF88880DFF814
S11348B088E01C4E1C4C1D49E0224FF4BA7C40F2A7
S11348C0751583F800234FF4BB7BC7F800C040F292
S11348D0771983F801234FF4C37C056040F28717EE
S11348E04FF4C47583F8022340F28910CAF800B06B
S11348F083F80323C8F8009083F80423CEF800C09B
S113490083F80523376083F80623256083F807239B
S11349100860BDE8F08F00BF00E100E000630040E4
S11349200463004014630040186300401C630040AB
S1134930086300400C63004010630040084B0121F1
S1134940034402E0C3E8401F40B1D3E84F2F12F004
S1134950FF0FF7D0BFF32F8F08207047704700BFB9
S1134960A402FE1F014B00221A547047A402FE1F2A
S1134970044B002103F1780203F8011F9342FBD199
S1134980704700BFA302FE1F0E4B33F8102092B2F3
S11349902AB133F81020013A92B223F8102033F8E8
S11349A010309BB263B9084A0849B2F8FE3331F8B3
S11349B010109BB243F4254323EA0103A2F8FE330B
S11349C0704700BF1C03FE1F00E001402C7A00006A
S11349D0104A32F810309BB2ABB910B40E4C0F49E8
S11349E0B4F8FE3331F810109BB243F425430B4363
S11349F0A4F8FE3332F810305DF8044B01339BB257
S1134A0022F81030704732F8103001339BB222F88C
S1134A10103070471C03FE1F00E001402C7A000098
S1134A20024B00221A805A809A8070471C03FE1F92
S1134A30F8B50788AFB341681B4C002601EBC70EDD
S1134A404FF0010C37468888002334F81320824243
S1134A5016D00133032BF8D108317145F3D1F64355
S1134A60F6B20120FFF7B4FF104A92F8BB341F439B
S1134A703E4082F8BB640120BDE8F840FFF784BFE4
S1134A800A6802F0B852B2F1807F05D00CFA03F53F
S1134A9046EA0502D6B2DCE70CFA03F21743FFB28A
S1134AA0D7E7FF26DDE700BF347A000000E00140CD
S1134AB0A0F101000028FBD1704700BF38B50D46B6
S1134AC001FB00F4FFF7C0FDB0F5004F01D8012D44
S1134AD019D00F4AB2FBF0F0844208D24FF47A7234
S1134AE002FB04F3B3FBF0F0800808D138BD4FF4A7
S1134AF07A72B4FBF0F002FB00F08008F6D0BDE857
S1134B003840FFF7D5BF2846BDE83840FFF7D0BF8F
S1134B1000CA9A3B0C4A08B513688BB1033020F0E5
S1134B2003000A491844884202D81060184608BD98
S1134B3001F07CFD0C2303604FF0FF33184608BDE1
S1134B40034B1360EAE700BF2403FE1FD818FE1FBF
S1134B50D808FE1FFEE700BF08B500F005F800F016
S1134B603DF9FEE7704700BF204A08B5D2F8883007
S1134B7043F47003C2F888300020FFF7F3FFFFF717
S1134B8073FDFFF713FDFFF74BFFFDF733FF184BE2
S1134B9018481B689847184A184B9B1A05D01344A9
S1134BA0002103F8011D9A42FBD11548154BC01A88
S1134BB007D0154A184412F8011B03F8011B83425D
S1134BC0F9D1FFF741FD114B18600120FFF7CAFF2F
S1134BD0FFF7CEFEFFF762FE0D4B0E481B689847A9
S1134BE00020BDE8084000F017B800BF00ED00E069
S1134BF00C790000D07A00008800FE1FD408FE1F44
S1134C007000FE1F0000FE1F0C8200008804FE1FBF
S1134C10947900003C7A000000F044B882B04FF070
S1134C20C84300210091009A1A7D61F300021A75AD
S1134C301A8DD0B1202161F30F221A851A8D4FF0FD
S1134C40C04142F080021A850A68009240F6FF7261
S1134C501946019204E0019B013B0193019A12B1B0
S1134C608A6A5206F7D502B070474FF0C04142F449
S1134C707F421A850A6800921A8D60F3C7121A855A
S1134C800A68009240F6FF711A46019105E0019B03
S1134C90013B0193019B002BE5D0936A5B06F6D49C
S1134CA002B07047F8B5494A13684FF0C84423F07E
S1134CB040031360237A6FF304032372237DFF22DE
S1134CC043F0010323752261237D662243F001032F
S1134CD023752261237D992243F001032375226108
S1134CE0237D43F00103237501212320FFF7E6FE12
S1134CF09F232361364B22691A7022695A702169F5
S1134D00227D997042F0010222751A78EF2A04D0AC
S1134D1000221A705A709A70F8BD5A78402AF7D156
S1134D209A78172AF4D1052020612A4923690B7047
S1134D30227D294B42F00102352622752661226923
S1134D401A70227D42F001022275228D042565F33A
S1134D50030222852279502765F303022271276119
S1134D60227D42F0010222751A78012742F00202E4
S1134D701A7027610A7822611A782261227D3A43E7
S1134D8022752561227D3A432275228860F302024E
S1134D902280206122690A70227D3A4322752661AD
S1134DA022691A70237D3B432375238843F0400313
S1134DB02380A369DB074FF0C845FAD40120FFF72D
S1134DC02DFF2B7D6FF300032B75F8BD007004409D
S1134DD02803FE1F2C03FE1F3003FE1F08B500F03E
S1134DE0C7FB002008BD00BF0020704738B5012272
S1134DF00C46D021054600F0FFFA00B138BD02464A
S1134E0021462846BDE8384000F016BB00B583B003
S1134E100DF10701FFF7EAFF30B99DF80700553897
S1134E2018BF4FF0FF3080B203B05DF804FB00BF41
S1134E302DE9F04F01228BB00C46AA21054600F063
S1134E40DBFA034610B10BB0BDE8F08F284604A985
S1134E50162200F0E5FA0028F5D19DF81B309DF8E4
S1134E60168001939DF817109DF81C3002939DF84D
S1134E701D309DF810B09DF812A09DF81490039376
S1134E809DF811709DF813609DF815509DF818C099
S1134E90019B9DF819209DF81AE041EA0821E18060
S1134EA0039947EA0B2746EA0A2645EA09259DF8AD
S1134EB01EA09DF81FB027809DF820909DF82170BA
S1134EC0668042EA0C229DF823609DF822C0A580EA
S1134ED043EA0E2E9DF825509DF824302281884601
S1134EE00299A4F80AE048EA01214BEA0A2B47EAAE
S1134EF0092746EA0C2645EA0325A181A4F80EB049
S1134F0027826682A5820BB0BDE8F08F10B5094BED
S1134F1082B01B88ADF8043001A90222002300F0FE
S1134F205FFA044610B9052000F09CFA204602B04E
S1134F3010BD00BFC87E00002DE9F0430B4683B0CE
S1134F400122F6211F89B3F80A805E8A9D8A0446ED
S1134F5000F052FA034610B103B0BDE8F0832046D6
S1134F6001A9022200F05CFA04460028F4D19DF85D
S1134F7005309DF804903C4843EA0929494601F06C
S1134F8063FB3A4801F0F0FBC8EB090007FB00F0B3
S1134F9000F0DEFC00224FF07C5300F03FFD00F0F7
S1134FA04FFF07460146324801F04EFB2F4801F0FF
S1134FB0DBFB30B200F0CCFC00222E4B00F02EFDC7
S1134FC0804607FA85F0894600F0C2FC02460B468B
S1134FD04046494600F04CFE00F032FF01460546CB
S1134FE0254801F031FB214801F0BEFB781900F09F
S1134FF0AFFC0022214B00F03BFE0F46064600F0BA
S11350001FFF054601461E4801F01EFB174801F02C
S1135010ABFB00221B4B3046394600F0FFFC064632
S11350204FF47A7000FB05F00F4600F091FC0B463C
S113503002463946304600F03DFB00F001FF0146D0
S11350400646114801F000FB084801F08DFB294693
S113505032460E4801F0F8FA044801F085FB204678
S113506003B0BDE8F08300BFD07E0000007F0000E5
S1135070047F00000000A040207F00000000644086
S11350803C7F000000408F40687F0000987F000054
S113509010B5094B82B01B88ADF8043001A9022277
S11350A0002300F09DF9044610B91A2000F0DAF943
S11350B0204602B010BD00BFCC7E0000FFFFFFFF02
S11350C02DE9F04FB1F900A0CB894F880A8AB1F8D5
S11350D008C0B1F80A808D88B1F806908E898C8A50
S11350E087B083460093A4484B8A019351460292A9
S11350F0CDF80CC03FB201F0A7FAA04801F034FB90
S113510039469F4801F0A0FA2DB29C4801F02CFBCF
S113511029469C4801F098FA984801F025FB494635
S1135120994801F091FA954801F01EFBDDF80CC096
S11351309648614601F088FA904801F015FB414613
S1135140934801F081FA36B28C4801F00DFB3146E8
S1135150BDF900808F4801F077FA884801F004FB1C
S113516041468D4801F070FA844801F0FDFA029A34
S11351708A4811B201F068FA804801F0F5FA019BFF
S1135180874819B201F060FA7C4801F0EDFA21B2C7
S1135190844801F059FA794801F0E6FA5846F621B4
S11351A0012200F029F9034610B107B0BDE8F08FE1
S11351B0584605A9032200F033F904460028F4D127
S11351C09DF814109DF815209DF81630764801F0CE
S11351D03BFA6A4801F0C8FA9DF815209DF814308E
S11351E09DF816C07148120242EA034343EA0C0CCC
S11351F04FEA2C1C6146CDF800C001F025FA5F4847
S113520001F0B2FA5D4801F0AFFA5C4801F0ACFA83
S11352105A4801F0A9FA594801F0A6FA484600F0A4
S113522097FB53A3D3E9002300F0F8FB00F008FE3A
S11352308346404600F08CFB00225D4B00F0EEFB01
S113524000F0FEFD00F084FB00225A4B00F0E6FB68
S113525080463846894600F07BFB0022564B00F01E
S1135260DDFB00F0EDFDA0EB8000400000F070FBE2
S113527002460B464046494600F01EFA8046504618
S1135280894600F065FB02460B464046494600F05D
S113529013FA00F031FEDDF800C0BCEB00084FEA61
S11352A0EC79304669EB010900F052FB0022434BD4
S11352B000F0B4FB00F0C4FD00FB0BF000F048FB71
S11352C000223C4B00F0AAFB064628460F4600F09D
S11352D03FFB00223A4B00F0A1FB00F0B1FD00FBC4
S11352E00BF0A0EB8000400000F032FB02460B46BE
S11352F03046394600F0E0F9064658460F4600F0BD
S113530027FB00222F4B00F089FB00F099FD00F0F1
S11353101FFB02460B463046394600F0CDF900F03B
S1135320EBFD02460B464046494600F0B1FD00F055
S113533047FB02460B4600F071FB0022002300F0FD
S11353406DFB0022002300F0B7F900224FF08043E8
S113535000F0B2F900F074FD01461B4801F074F945
S1135360064801F001FA204607B0BDE8F08F00BFFF
S1135370FCA9F1D24D62603EC07F0000007F0000B6
S1135380CC7F0000D87F0000E47F0000F07F0000A5
S1135390FC7F0000088000001080000018800000DE
S11353A02080000028800000308000005880000029
S11353B00000493F000042400000943F0000F93ED5
S11353C00000743F0000E04084800000002070472B
S11353D0024B9A681868126859681047C47A00002A
S11353E030B4044D2C68AD682081ED682046AC468D
S11353F030BC6047C47A000070B582B0074B02AC81
S11354001D689E6804F8011D13462881F668284625
S113541021460122B04702B070BD00BFC47A00002B
S113542030B4044D2C68AD682081AD682046AC468C
S113543030BC6047C47A0000054B30B41C689D68DA
S113544020812046AC681346A446012230BC604744
S1135450C47A0000024B9A681868126859681047A9
S1135460B87A0000F0B5124B83B004465B690020A3
S113547001A9984708B103B0F0BD0E4B019D1F6808
S11354809E683846F36898470028F4D10A4BA3FB7A
S11354900535AD0905FB04F402E0009B9C42EAD902
S11354A033693846694698470028F6D003B0F0BD02
S11354B0CC790000B87A0000D34D621038B5084B9F
S11354C0084C9A681868936800252570012298474B
S11354D020B92378002BFCD0012038BD284638BDE4
S11354E0487A0000CC08FE1F38B5084B084C9A686F
S11354F018685368002525700122984720B923783D
S1135500002BFCD0012038BD284638BD487A000065
S1135510C804FE1F00207047094B9A681868126877
S1135520596810B59047044640B9064B1B680146BC
S1135530022298684FF4806301F01EF9204610BDE2
S1135540487A00006000FE1F0379022B08D0802BEC
S113555002D0012B00D07047034B01221A70704710
S1135560024B01221A707047C804FE1FCC08FE1FAC
S113557000B593B0FFF7CEFF00B1FEE7FFF7CCFF15
S113558000B1FEE73E4801F05FF8FFF763FF18B192
S11355903C4801F0E9F8FEE73B4801F0E5F83B48F8
S11355A001F052F8FFF712FF18B1364801F0DCF8A9
S11355B0FEE7354801F0D8F8354801F045F8FFF723
S11355C007FF18B12F4801F0CFF8FEE72E4801F08D
S11355D0CBF8304801F038F87720FFF705FC18B114
S11355E0284801F0C1F8FEE7274801F0BDF82A4831
S11355F001F02AF87720FFF709FC18B1214801F0DF
S1135600B3F8FEE7204801F0AFF8244801F01CF895
S113561077200DF10701FFF7E9FB18B1194801F0F4
S1135620A3F8FEE79DF807101D4801F00DF81D488A
S113563001F00AF804A97720FFF7FAFB18B1114822
S113564001F092F8FEE7104801F08EF8164801F0D8
S11356508BF804A97720FFF759FC02AA04A9772044
S1135660FFF76AFC04A97720FFF712FD04A903AA37
S11356707720FFF725FD4FF4FA70FFF7F3FEE8E714
S1135680A8800000C0800000CC800000D48000000E
S1135690E8800000F88000001081000024810000F0
S11356A0308100003C810000007F000081F0004157
S11356B002E000BF83F0004330B54FEA41044FEAF3
S11356C0430594EA050F08BF90EA020F1FBF54EA8E
S11356D0000C55EA020C7FEA645C7FEA655C00F02A
S11356E0E2804FEA5454D4EB5555B8BF6D420CDDFB
S11356F02C4480EA020281EA030382EA000083EA7E
S1135700010180EA020281EA0303362D88BF30BD1D
S113571011F0004F4FEA01314FF4801C4CEA113173
S113572002D0404261EB410113F0004F4FEA0333D2
S11357304CEA133302D0524263EB430394EA050F5D
S113574000F0A780A4F10104D5F1200E0DDB02FACC
S11357500EFC22FA05F2801841F1000103FA0EF260
S1135760801843FA05F359410EE0A5F120050EF126
S1135770200E012A03FA0EFC28BF4CF0020C43FA57
S113578005F3C01851EBE37101F0004507D54FF064
S1135790000EDCF1000C7EEB00006EEB0101B1F5B4
S11357A0801F1BD3B1F5001F0CD349085FEA3000FA
S11357B04FEA3C0C04F101044FEA445212F5800F05
S11357C080F09A80BCF1004F08BF5FEA500C50F1A2
S11357D0000041EB045141EA050130BD5FEA4C0C85
S11357E0404141EB010111F4801FA4F10104E9D10E
S11357F091F0000F04BF01460020B1FA81F308BF05
S11358002033A3F10B03B3F120020CDA0C3208DDD0
S113581002F1140CC2F10C0201FA0CF021FA02F1AB
S11358200CE002F11402D8BFC2F1200C01FA02F11B
S113583020FA0CFCDCBF41EA0C019040E41AA2BF40
S113584001EB0451294330BD6FEA04041F3C1CDA08
S11358500C340EDC04F11404C4F1200220FA04F028
S113586001FA02F340EA030021FA04F345EA0301D2
S113587030BDC4F10C04C4F1200220FA02F001FA94
S113588004F340EA0300294630BD21FA04F0294616
S113589030BD94F0000F83F4801306BF81F48011AF
S11358A00134013D4EE77FEA645C18BF7FEA655C22
S11358B029D094EA050F08BF90EA020F05D054EAF4
S11358C0000C04BF1946104630BD91EA030F1EBFF9
S11358D00021002030BD5FEA545C05D140004941FD
S11358E028BF41F0004130BD14F580043CBF01F5F0
S11358F0801130BD01F0004545F0FE4141F47001D6
S11359004FF0000030BD7FEA645C1ABF19461046B0
S11359107FEA655C1CBF0B46024650EA013406BFB1
S113592052EA033591EA030F41F4002130BD00BF70
S113593090F0000F04BF0021704730B54FF480642D
S113594004F132044FF000054FF0000150E700BFAE
S113595090F0000F04BF0021704730B54FF480640D
S113596004F1320410F0004548BF40424FF00001FA
S11359703EE700BF42004FEAE2014FEA31014FEA3D
S113598002701FBF12F07F4393F07F4F81F060518C
S1135990704792F0000F14BF93F07F4F704730B5FB
S11359A04FF4607401F0004521F0004120E700BF8E
S11359B050EA010208BF704730B54FF000050AE015
S11359C050EA010208BF704730B511F0004502D516
S11359D0404261EB41014FF4806404F132045FEA18
S11359E0915C3FF4DCAE4FF003025FEADC0C18BFBD
S11359F003325FEADC0C18BF033202EBDC02C2F1B3
S1135A00200300FA03FC20FA02F001FA03FE40EA44
S1135A100E0021FA02F11444C1E600BF70B54FF044
S1135A20FF0C4CF4E06C1CEA11541DBF1CEA135526
S1135A3094EA0C0F95EA0C0F00F0DEF82C4481EA8E
S1135A40030621EA4C5123EA4C5350EA013518BFAE
S1135A5052EA033541F4801143F4801338D0A0FB9B
S1135A6002CE4FF00005E1FB02E506F00042E0FB48
S1135A7003E54FF00006E1FB03569CF0000F18BF4E
S1135A804EF0010EA4F1FF04B6F5007F64F54074F6
S1135A9004D25FEA4E0E6D4146EB060642EAC62189
S1135AA041EA55514FEAC52040EA5E504FEACE2EF6
S1135AB0B4F1FD0C88BFBCF5E06F1ED8BEF1004FF9
S1135AC008BF5FEA500E50F1000041EB045170BD75
S1135AD006F0004646EA010140EA020081EA0301B9
S1135AE0B4EB5C04C2BFD4EB0C0541EA045170BDB5
S1135AF041F480114FF0000E013C00F3AB8014F12F
S1135B00360FDEBF002001F0004170BDC4F1000477
S1135B10203C35DA0C341BDC04F11404C4F12005F8
S1135B2000FA05F320FA04F001FA05F240EA020053
S1135B3001F0004221F0004110EBD37021FA04F689
S1135B4042EB06015EEA430E08BF20EAD37070BD43
S1135B50C4F10C04C4F1200500FA04F320FA05F0A2
S1135B6001FA04F240EA020001F0004110EBD370A4
S1135B7041F100015EEA430E08BF20EAD37070BD14
S1135B80C4F1200500FA05F24EEA020E20FA04F3ED
S1135B9001FA05F243EA020321FA04F001F000419C
S1135BA021FA04F220EA020000EBD3705EEA430E0D
S1135BB008BF20EAD37070BD94F0000F0FD101F03C
S1135BC00046400041EB010111F4801F08BF013C75
S1135BD0F7D041EA060195F0000F18BF704703F0B3
S1135BE00046520043EB030313F4801F08BF013D3A
S1135BF0F7D043EA0603704794EA0C0F0CEA1355F6
S1135C0018BF95EA0C0F0CD050EA410618BF52EAAF
S1135C104306D1D181EA030101F000414FF00000B5
S1135C2070BD50EA410606BF1046194652EA4306C3
S1135C3019D094EA0C0F02D150EA013613D195EA37
S1135C400C0F05D152EA03361CBF104619460AD17F
S1135C5081EA030101F0004141F0FE4141F4700189
S1135C604FF0000070BD41F0FE4141F4780170BD79
S1135C7070B54FF0FF0C4CF4E06C1CEA11541DBFDE
S1135C801CEA135594EA0C0F95EA0C0F00F0A7F8E0
S1135C90A4EB050481EA030E52EA03354FEA01310D
S1135CA000F088804FEA03334FF0805545EA131320
S1135CB043EA12634FEA022245EA111545EA1065E8
S1135CC04FEA00260EF000419D4208BF964244F17F
S1135CD0FD0404F5407402D25B084FEA3202B61A9E
S1135CE065EB03055B084FEA32024FF480104FF472
S1135CF0002CB6EB020E75EB030E22BFB61A7546E6
S1135D0040EA0C005B084FEA3202B6EB020E75EB78
S1135D10030E22BFB61A754640EA5C005B084FEAE0
S1135D203202B6EB020E75EB030E22BFB61A7546AD
S1135D3040EA9C005B084FEA3202B6EB020E75EBB8
S1135D40030E22BFB61A754640EADC0055EA060E79
S1135D5018D04FEA051545EA16754FEA06164FEABC
S1135D60C30343EA52734FEAC2025FEA1C1CC0D168
S1135D7011F4801F0BD141EA00014FF000004FF0F5
S1135D80004CB6E711F4801F04BF01430020B4F1B6
S1135D90FD0C88BFBCF5E06F3FF6AFAEB5EB030C6E
S1135DA004BFB6EB020C5FEA500C50F1000041EB6B
S1135DB0045170BD0EF0004E4EEA113114EB5C0438
S1135DC0C2BFD4EB0C0541EA045170BD41F480110B
S1135DD04FF0000E013C90E645EA060E8DE60CEA13
S1135DE0135594EA0C0F08BF95EA0C0F3FF43BAF30
S1135DF094EA0C0F0AD150EA01347FF434AF95EAE7
S1135E000C0F7FF425AF104619462CE795EA0C0FCA
S1135E1006D152EA03353FF4FDAE1046194622E797
S1135E2050EA410618BF52EA43067FF4C5AE50EA71
S1135E3041047FF40DAF52EA43057FF4EBAE12E761
S1135E404FEA410212F5001215D211D56FF478739E
S1135E50B3EB625212D94FEAC12343F0004343EA41
S1135E60505311F0004F23FA02F018BF404270471C
S1135E704FF00000704750EA013005D111F00040A6
S1135E8008BF6FF0004070474FF00000704700BF3C
S1135E907BB972B90029BEBF00204FF0004106E073
S1135EA008BF00281CBF6FF000414FF0FF3000F026
S1135EB08FB882B0EC462DE9005000F059F8DDF8B7
S1135EC004E002B00CBC704753B94AB9002908BFBA
S1135ED000281CBF4FF0FF314FF0FF3000F078B8BE
S1135EE082B0EC462DE9005000F05AF8DDF804E0E9
S1135EF002B00CBC704700BF38B500220023044632
S1135F000D4600F0C7F828B920462946BDE83840B8
S1135F1000F00AB8204605F1004100F005F84042BF
S1135F2061EB410138BD00BFD0B500220E4B0646DF
S1135F300F46FFF773FD00F0D5F80446FFF7F8FCB1
S1135F4000220A4BFFF76AFD02460B4630463946EB
S1135F50FFF7B0FB00F0C6F82346002242EA000235
S1135F6010461946D0BD00BF0000F03D0000F041CE
S1135F702DE9F041069C154606460F46984600F06A
S1135F80D1F805FB01F300FB0838A5FB0023B21A86
S1135F90434467EB0303C4E90023BDE8F08100BF79
S1135FA02DE9F041069C904606460F461D4600F03A
S1135FB007FA00FB05F5A0FB082308FB0155B21AFC
S1135FC02B4467EB0303C4E90023BDE8F08100BF61
S1135FD0704700BF4FF0FF3C06E000BF4FF0010CDC
S1135FE002E000BF4FF0010C4DF804CD4FEA410C24
S1135FF07FEA6C5C4FEA430C18BF7FEA6C5C1BD0F1
S113600001B050EA410C0CBF52EA430C91EA030F71
S113601002BF90EA020F0020704710F1000F91EACE
S1136020030F58BF994208BF90422CBFD8176FEA9C
S1136030E37040F0010070474FEA410C7FEA6C5C6A
S113604002D150EA013C07D14FEA430C7FEA6C5C71
